{
  "_format": "hh-sol-artifact-1",
  "contractName": "TransactionValidator",
  "sourceName": "contracts/TransactionValidator.sol",
  "abi": [
    {
      "inputs": [],
      "stateMutability": "nonpayable",
      "type": "constructor"
    },
    {
      "anonymous": false,
      "inputs": [
        {
          "indexed": true,
          "internalType": "address",
          "name": "user",
          "type": "address"
        },
        {
          "indexed": false,
          "internalType": "uint256",
          "name": "amount",
          "type": "uint256"
        },
        {
          "indexed": false,
          "internalType": "string",
          "name": "recipientAddress",
          "type": "string"
        },
        {
          "indexed": false,
          "internalType": "string",
          "name": "riskLevel",
          "type": "string"
        }
      ],
      "name": "TransactionVerified",
      "type": "event"
    },
    {
      "inputs": [
        {
          "internalType": "address",
          "name": "_user",
          "type": "address"
        },
        {
          "internalType": "uint256",
          "name": "_index",
          "type": "uint256"
        }
      ],
      "name": "getTransaction",
      "outputs": [
        {
          "internalType": "uint256",
          "name": "amount",
          "type": "uint256"
        },
        {
          "internalType": "string",
          "name": "recipientAddress",
          "type": "string"
        },
        {
          "internalType": "uint256",
          "name": "timestamp",
          "type": "uint256"
        },
        {
          "internalType": "bool",
          "name": "isVerified",
          "type": "bool"
        },
        {
          "internalType": "string",
          "name": "riskLevel",
          "type": "string"
        }
      ],
      "stateMutability": "view",
      "type": "function"
    },
    {
      "inputs": [
        {
          "internalType": "address",
          "name": "_user",
          "type": "address"
        }
      ],
      "name": "getTransactionCount",
      "outputs": [
        {
          "internalType": "uint256",
          "name": "",
          "type": "uint256"
        }
      ],
      "stateMutability": "view",
      "type": "function"
    },
    {
      "inputs": [],
      "name": "owner",
      "outputs": [
        {
          "internalType": "address",
          "name": "",
          "type": "address"
        }
      ],
      "stateMutability": "view",
      "type": "function"
    },
    {
      "inputs": [
        {
          "internalType": "address",
          "name": "",
          "type": "address"
        },
        {
          "internalType": "uint256",
          "name": "",
          "type": "uint256"
        }
      ],
      "name": "userTransactions",
      "outputs": [
        {
          "internalType": "uint256",
          "name": "amount",
          "type": "uint256"
        },
        {
          "internalType": "string",
          "name": "recipientAddress",
          "type": "string"
        },
        {
          "internalType": "uint256",
          "name": "timestamp",
          "type": "uint256"
        },
        {
          "internalType": "bool",
          "name": "isVerified",
          "type": "bool"
        },
        {
          "internalType": "string",
          "name": "riskLevel",
          "type": "string"
        }
      ],
      "stateMutability": "view",
      "type": "function"
    },
    {
      "inputs": [
        {
          "internalType": "uint256",
          "name": "_amount",
          "type": "uint256"
        },
        {
          "internalType": "string",
          "name": "_recipientAddress",
          "type": "string"
        },
        {
          "internalType": "string",
          "name": "_riskLevel",
          "type": "string"
        }
      ],
      "name": "validateTransaction",
      "outputs": [
        {
          "internalType": "bool",
          "name": "",
          "type": "bool"
        }
      ],
      "stateMutability": "nonpayable",
      "type": "function"
    }
  ],
  "bytecode": "0x608060405234801561001057600080fd5b5033600160006101000a81548173ffffffffffffffffffffffffffffffffffffffff021916908373ffffffffffffffffffffffffffffffffffffffff1602179055506110bd806100616000396000f3fe608060405234801561001057600080fd5b50600436106100575760003560e01c806323ca0cd21461005c57806376aafbc71461008c5780638da5cb5b146100bc578063a43293b4146100da578063b842ec441461010e575b600080fd5b610076600480360381019061007191906107ed565b610142565b6040516100839190610833565b60405180910390f35b6100a660048036038101906100a191906109c0565b61018d565b6040516100b39190610a66565b60405180910390f35b6100c461036b565b6040516100d19190610a90565b60405180910390f35b6100f460048036038101906100ef9190610aab565b610391565b604051610105959493929190610b6a565b60405180910390f35b61012860048036038101906101239190610aab565b61060b565b604051610139959493929190610b6a565b60405180910390f35b60008060008373ffffffffffffffffffffffffffffffffffffffff1673ffffffffffffffffffffffffffffffffffffffff168152602001908152602001600020805490509050919050565b60008084116101d1576040517f08c379a00000000000000000000000000000000000000000000000000000000081526004016101c890610c17565b60405180910390fd5b6000835111610215576040517f08c379a000000000000000000000000000000000000000000000000000000000815260040161020c90610ca9565b60405180910390fd5b60006040518060a001604052808681526020018581526020014281526020016001151581526020018481525090506000803373ffffffffffffffffffffffffffffffffffffffff1673ffffffffffffffffffffffffffffffffffffffff1681526020019081526020016000208190806001815401808255809150506001900390600052602060002090600502016000909190919091506000820151816000015560208201518160010190816102ca9190610ed5565b506040820151816002015560608201518160030160006101000a81548160ff021916908315150217905550608082015181600401908161030a9190610ed5565b5050503373ffffffffffffffffffffffffffffffffffffffff167fdc8f4fff52616f36a7cfc09357ce108acad3e17ac8e9bee6f7230ce2fa0a9d4b86868660405161035793929190610fa7565b60405180910390a260019150509392505050565b600160009054906101000a900473ffffffffffffffffffffffffffffffffffffffff1681565b6000606060008060606000808873ffffffffffffffffffffffffffffffffffffffff1673ffffffffffffffffffffffffffffffffffffffff16815260200190815260200160002080549050861061041d576040517f08c379a000000000000000000000000000000000000000000000000000000000815260040161041490611038565b60405180910390fd5b60008060008973ffffffffffffffffffffffffffffffffffffffff1673ffffffffffffffffffffffffffffffffffffffff168152602001908152602001600020878154811061046f5761046e611058565b5b90600052602060002090600502016040518060a0016040529081600082015481526020016001820180546104a290610cf8565b80601f01602080910402602001604051908101604052809291908181526020018280546104ce90610cf8565b801561051b5780601f106104f05761010080835404028352916020019161051b565b820191906000526020600020905b8154815290600101906020018083116104fe57829003601f168201915b50505050508152602001600282015481526020016003820160009054906101000a900460ff1615151515815260200160048201805461055990610cf8565b80601f016020809104026020016040519081016040528092919081815260200182805461058590610cf8565b80156105d25780601f106105a7576101008083540402835291602001916105d2565b820191906000526020600020905b8154815290600101906020018083116105b557829003601f168201915b50505050508152505090508060000151816020015182604001518360600151846080015195509550955095509550509295509295909350565b6000602052816000526040600020818154811061062757600080fd5b90600052602060002090600502016000915091505080600001549080600101805461065190610cf8565b80601f016020809104026020016040519081016040528092919081815260200182805461067d90610cf8565b80156106ca5780601f1061069f576101008083540402835291602001916106ca565b820191906000526020600020905b8154815290600101906020018083116106ad57829003601f168201915b5050505050908060020154908060030160009054906101000a900460ff16908060040180546106f890610cf8565b80601f016020809104026020016040519081016040528092919081815260200182805461072490610cf8565b80156107715780601f1061074657610100808354040283529160200191610771565b820191906000526020600020905b81548152906001019060200180831161075457829003601f168201915b5050505050905085565b6000604051905090565b600080fd5b600080fd5b600073ffffffffffffffffffffffffffffffffffffffff82169050919050565b60006107ba8261078f565b9050919050565b6107ca816107af565b81146107d557600080fd5b50565b6000813590506107e7816107c1565b92915050565b60006020828403121561080357610802610785565b5b6000610811848285016107d8565b91505092915050565b6000819050919050565b61082d8161081a565b82525050565b60006020820190506108486000830184610824565b92915050565b6108578161081a565b811461086257600080fd5b50565b6000813590506108748161084e565b92915050565b600080fd5b600080fd5b6000601f19601f8301169050919050565b7f4e487b7100000000000000000000000000000000000000000000000000000000600052604160045260246000fd5b6108cd82610884565b810181811067ffffffffffffffff821117156108ec576108eb610895565b5b80604052505050565b60006108ff61077b565b905061090b82826108c4565b919050565b600067ffffffffffffffff82111561092b5761092a610895565b5b61093482610884565b9050602081019050919050565b82818337600083830152505050565b600061096361095e84610910565b6108f5565b90508281526020810184848401111561097f5761097e61087f565b5b61098a848285610941565b509392505050565b600082601f8301126109a7576109a661087a565b5b81356109b7848260208601610950565b91505092915050565b6000806000606084860312156109d9576109d8610785565b5b60006109e786828701610865565b935050602084013567ffffffffffffffff811115610a0857610a0761078a565b5b610a1486828701610992565b925050604084013567ffffffffffffffff811115610a3557610a3461078a565b5b610a4186828701610992565b9150509250925092565b60008115159050919050565b610a6081610a4b565b82525050565b6000602082019050610a7b6000830184610a57565b92915050565b610a8a816107af565b82525050565b6000602082019050610aa56000830184610a81565b92915050565b60008060408385031215610ac257610ac1610785565b5b6000610ad0858286016107d8565b9250506020610ae185828601610865565b9150509250929050565b600081519050919050565b600082825260208201905092915050565b60005b83811015610b25578082015181840152602081019050610b0a565b60008484015250505050565b6000610b3c82610aeb565b610b468185610af6565b9350610b56818560208601610b07565b610b5f81610884565b840191505092915050565b600060a082019050610b7f6000830188610824565b8181036020830152610b918187610b31565b9050610ba06040830186610824565b610bad6060830185610a57565b8181036080830152610bbf8184610b31565b90509695505050505050565b7f416d6f756e74206d7573742062652067726561746572207468616e2030000000600082015250565b6000610c01601d83610af6565b9150610c0c82610bcb565b602082019050919050565b60006020820190508181036000830152610c3081610bf4565b9050919050565b7f526563697069656e7420616464726573732063616e6e6f7420626520656d707460008201527f7900000000000000000000000000000000000000000000000000000000000000602082015250565b6000610c93602183610af6565b9150610c9e82610c37565b604082019050919050565b60006020820190508181036000830152610cc281610c86565b9050919050565b7f4e487b7100000000000000000000000000000000000000000000000000000000600052602260045260246000fd5b60006002820490506001821680610d1057607f821691505b602082108103610d2357610d22610cc9565b5b50919050565b60008190508160005260206000209050919050565b60006020601f8301049050919050565b600082821b905092915050565b600060088302610d8b7fffffffffffffffffffffffffffffffffffffffffffffffffffffffffffffffff82610d4e565b610d958683610d4e565b95508019841693508086168417925050509392505050565b6000819050919050565b6000610dd2610dcd610dc88461081a565b610dad565b61081a565b9050919050565b6000819050919050565b610dec83610db7565b610e00610df882610dd9565b848454610d5b565b825550505050565b600090565b610e15610e08565b610e20818484610de3565b505050565b5b81811015610e4457610e39600082610e0d565b600181019050610e26565b5050565b601f821115610e8957610e5a81610d29565b610e6384610d3e565b81016020851015610e72578190505b610e86610e7e85610d3e565b830182610e25565b50505b505050565b600082821c905092915050565b6000610eac60001984600802610e8e565b1980831691505092915050565b6000610ec58383610e9b565b9150826002028217905092915050565b610ede82610aeb565b67ffffffffffffffff811115610ef757610ef6610895565b5b610f018254610cf8565b610f0c828285610e48565b600060209050601f831160018114610f3f5760008415610f2d578287015190505b610f378582610eb9565b865550610f9f565b601f198416610f4d86610d29565b60005b82811015610f7557848901518255600182019150602085019450602081019050610f50565b86831015610f925784890151610f8e601f891682610e9b565b8355505b6001600288020188555050505b505050505050565b6000606082019050610fbc6000830186610824565b8181036020830152610fce8185610b31565b90508181036040830152610fe28184610b31565b9050949350505050565b7f5472616e73616374696f6e20646f6573206e6f74206578697374000000000000600082015250565b6000611022601a83610af6565b915061102d82610fec565b602082019050919050565b6000602082019050818103600083015261105181611015565b9050919050565b7f4e487b7100000000000000000000000000000000000000000000000000000000600052603260045260246000fdfea2646970667358221220cf16cd1a4e795251baea2640fb162b23ff248987920c8bd058c80ebf1f8eef3264736f6c63430008180033",
  "linkReferences": {},
  "deployedLinkReferences": {}
}